:020000001B28BB
:100008007E14803120007F08F300111C162821007F
:10001800111C16282830F000FC30F100BE263925C6
:100028002000111073082000FF007E1009001C2812
:100038001630EE00F601F701F801F90120308400CE
:10004800003085003930C6267E102000D22C2000D2
:10005800E2007908031D8829A6252000E100F9009F
:10006800882901306525003A03190800F401F501D3
:100078007908E1252000CE01CE0A08000030652568
:10008800003A031DC5280A302000E100CE00080010
:100098007908732603307502E83003197402031CCB
:1000A800080022000E150130B626F401F501790882
:1000B800E12520000230CD01E100CE0008007908DA
:1000C800732613307502893003197402031C080063
:1000D80022008E150A302000E100CE0008007908C1
:1000E800732627307502113003197402031C0800A7
:1000F80022008E150A302000E100CE0008007908A1
:10010800732603307502E83003197402031C0800D3
:1001180022008E150E150A302000E100CE000800DE
:10012800790873260B307502B93003197402031C61
:10013800A52822008E18A5288E14F401F501790847
:10014800E12D22008E1C0800790873260030750204
:10015800C83003197402031C080022008E100A30EC
:100168002000E100CE00080022008E1DBE288E115E
:100178000E11C0288E150E150A302000E100CE00A1
:10018800080020006208003A03199C29013A031963
:100198004C28033A03196328013A03197328073ACC
:1001A80003198328013A03199428033A03199C294F
:1001B800653A0319B8289C29080000306525003ADB
:1001C800031DEB280A302000E100CE000800790862
:1001D800732603307502E83003197402031C080003
:1001E80022008E15F401F5017908E12520004D085B
:1001F800031D02290330E100CE000800F401F501D7
:100208007908E12504302000E100CE000800003024
:100218006525003A031D15290A302000E100CE00AB
:1002280008007908732603307502E8300319740250
:10023800031C080022008E11F401F5017908E1255C
:1002480020000230CD01CD0AE100CE0008000030C8
:100258006525003A031D35290A302000E100CE004B
:1002680008007908732603307502E8300319740210
:10027800031C08000030B62622000E110A302000A8
:10028800E100CE00080000306525003A031D080093
:100298002000CE01080022008E1000306525003AAB
:1002A800031D5E2922008E195E298E15F401F501C1
:1002B8007908E12D7908732600307502C8300319D2
:1002C8007402031C080022008E1D08008E112000F5
:1002D800CE01080000306525003A031D08000030F3
:1002E800B62622008E100E118E110E122000CE019D
:1002F80008006208053A03194F29663A0319472985
:100308006E290800CE0108004E08003A0319352866
:10031800013A03194228033A0319E128013A03195B
:100328000B29073A03192B290E3A03197D29862927
:1003380008002000EB007608031DA629A62520004A
:10034800E500F6007608732674082000C0007508DA
:10035800C100C201C301BE2A01306525003A031954
:10036800080022008E142000C701C70A08000030C8
:100378006525003A031D0800F401F5017608E1251A
:100388000B302000E500C70008006B08023E86001D
:1003980087010108E500E601E701E8016808DC00DB
:1003A8006708DB006608DA006508D9000030E0005D
:1003B8000930DF002730DE00C030DD000C252000CA
:1003C8005C084302031DF2295B084202031DF2295F
:1003D8005A084102031DF22959084002031C08006B
:1003E800F401F5017608E1250C302000E500C7008E
:1003F80008006B08033E860087010108E500E60156
:10040800E701E8016808DC006708DB006608DA0035
:100418006508D9000030E000DF00EA30DE00603017
:10042800DD000C2520005C084302031D252A5B081B
:100438004202031D252A5A084102031D252A59088C
:100448004002031C0800F401F5017608E1250D308F
:100458002000E500C70008006B08043E86008701FD
:100468000108E500E601D9006608DA001030DB0073
:100478002730DC00C52520005908E7005A08E800A5
:100488000030E81BFF30E900EA004302031D562A4A
:1004980069084202031D562A68084102031D562AAC
:1004A80067084002031C0800F401F5017608E125FD
:1004B8000E302000E500C70008006B08053E8600E6
:1004C80087010108E500E601D9006608DA00E8308E
:1004D800DB000330DC00C52520005908E7005A0876
:1004E800E8000030E81BFF30E900EA004302031D82
:1004F800872A69084202031D872A68084102031DEA
:10050800872A67084002031C0800F401F5017608F1
:10051800E1250F302000E500C70008006B08063E03
:10052800860087010108E500E601D9006608DA00BF
:100538006430DB00DC01C52520005908E7005A08B3
:10054800E8000030E81BFF30E900EA004302031D21
:10055800B72A69084202031DB72A68084102031D29
:10056800B72A67084002031C080022008E102000EA
:10057800C70108004708003A0319B029013A0319CE
:10058800BB290A3A0319C929073A0319FD29013A6F
:100598000319302A033A0319612A013A0319922AE6
:1005A800D52A0800782B01306525003A0319080080
:1005B8002000C801C80A080000306525003A031D5C
:1005C800080022008E1403302000E100C800080053
:1005D80001308625003A0319002B163020006E06DC
:1005E800031D002B22008E1014302000E100EE00C5
:1005F8000430E100C800080000308625003A031DD9
:10060800080016302000E100EE000230E100C800CA
:10061800080001306525003A0319192B22008E10B5
:1006280004302000E100C800080003302000E10089
:10063800C800080000306525003A031D08000A308C
:100648002000E100C800080001306525003A0319C0
:1006580008000B302000E100C800080000306525C4
:10066800003A031D080022008E150D302000E1001D
:10067800C800080001308625003A0319522B1630AD
:1006880020006E06031D522B22008E11153020000B
:10069800E100EE000E30E100C800080000308625B9
:1006A800003A031D080016302000E100EE000C306F
:1006B800E100C800080001306525003A03196B2BDA
:1006C80022008E110E302000E100C80008000D3015
:1006D8002000E100C800080000306525003A031D2D
:1006E80008002000C801080020004808003A031943
:1006F800D72A013A0319E02A033A03190D2B013AC4
:100708000319EC2A073A03191E2B0E3A0319282B52
:10071800013A0319322B073A03195F2B013A0319DF
:100728003E2B033A0319702B992B0800200044082C
:10073800031D1E2CA6252000E100C4001E2C01303C
:100748006525003A01300319B52B8625003A0319AF
:10075800B42B63302000E100C600C501C50A0800BB
:1007680001306525003A0319C12B63302000E100F0
:10077800C6000230E100C500080001308625003AB5
:1007880063300319CE2B2000E100C6000330E100DE
:10079800C50008002000E100C6000430E100C500E3
:1007A800080001306525003A0319E42B013086253D
:1007B800003A0319E42B22008E100E118E110E162A
:1007C8002000C601080001306525003A0319F12B05
:1007D80022008E110E128E140E152000C60108007C
:1007E80001308625003A0319FE2B22008E100E11C7
:1007F8000E128E152000C601080022008E100E1160
:100808008E110E122000C6010800F401F5014408FB
:10081800E12520004408732600307502643003196E
:100828007402031C0D2C20004508E100C6000800D6
:10083800C60108004608003A0319A32B013A031918
:10084800D52B033A0319E72B013A0319F42B073A7E
:100858000319012C673A0319092C1C2C0800770886
:10086800031D872CA6252000E100F700872C013006
:100878006525003A0319442C22008E100E11080039
:10088800F401F5017708E12501302000E100CA07ED
:10089800080077087326133075028930031974022B
:1008A8000030031C682C6525003A031D672C2200C4
:1008B8008E140E15F401F5017708E12501302000AA
:1008C800E100CA07080000306525003A031908004E
:1008D8002000CA010800770873260B307502B9306A
:1008E80003197402031C7B2C2000CA010800003085
:1008F8006525003A031D0800F401F5017708E12D8C
:100908002000CA01080020004A08003A03193B2CBD
:10091800013A03194D2C033A03196F2C842C080053
:10092800C82C01306525003A0319080022000E0C76
:1009380001392000E1000130E106E10D22000E0836
:1009480020006106FD39610622008E000E0C200091
:10095800E100610C0139E1000130E106E10DE10D32
:1009680022000E0820006106FB39610622008E0075
:100978002000C901C90A080001306525003A031D95
:1009880008002000C901080020004908003A03199E
:10099800952C013A0319C02CD12C08000D30F40015
:1009A8000030F500FD258B170B178426CC26283040
:1009B800F400FC30F500AE2601302F265E2620001C
:1009C800ED00D000FF2C9A23FF2C01302B20FF2CA8
:1009D80002302B20FF2C03302B20FF2C04302B203F
:1009E800FF2C05302B20FF2C3324FF2CD622FF2C84
:1009F8009424FF2C942664002000500884000A30B8
:100A080004020318FF2C8631A43004078200FF2C4F
:100A180000302000E400E300E200E100591C1C2D36
:100A28005D08E1075E08E23D5F08E33D6008E43DDC
:100A38000130DD35DE0DDF0DE00D890B1D2D013098
:100A4800DC36DB0CDA0CD90C890B242D5C085B0432
:100A58005A045904031D122D6408DC006308DB00E6
:100A68006208DA006108D90008007808031908004C
:100A7800F201F20A7808013EF00000300318013054
:100A8800F100803A803C031D4B2D70087202031858
:100A980008007208F0000130F035FF3E031D502DAC
:100AA8007035203E860001308701810700304131D2
:100AB800813D4131813D4131813D0130F000F207F6
:100AC8003E2D2000E0004C08031D6E2DA6252000B9
:100AD800DF00CC000C190034600803190134F4015C
:100AE800F5014C08E12520004C08732600307502FA
:100AF800323003197402031C772D20000C190034BE
:100B0800000001342000E0004B08031D8F2DA625AE
:100B18002000DF00CB008C19003460080319013471
:100B2800F401F5014B08E12520004B08732600303D
:100B38007502323003197402031C982D20008C1D95
:100B48000134003408307806031DAF2D1730F40047
:100B58008630F500472601302000DE00F8077808C7
:100B6800DE000130DE35FF3E031DB62D5E35203E2A
:100B7800860000308701C03FC13FC23FC33F7808AD
:100B88000800F401F5012000591CCE2D5B08F4077C
:100B98005C08F53D0130DB35DC0D890BCF2D0130CC
:100BA800DA36D90C890BD42D59085A04031DC72DE0
:100BB8007508DA007408D90008002000DE007408FF
:100BC800D9007508DA00DB01DC015E08DD000130C0
:100BD800DD35FF3E031DEC2D5D35203E8600870187
:100BE8005908C03F5A08C13F5B08C23F5C08C33F71
:100BF800080074082000D900D90DD90DD90D21009D
:100C08001908200059068739590621009900190842
:100C1800FC39023899000000000021001A1E112E2C
:100C28001A180800142E4D346134783469346D3440
:100C380075346D342034743469346D3465347234E9
:100C48007334203472346534613463346834653401
:100C5800643421340034F400200018103C2E2000A5
:100C68001110392E21001110442E21001114442E88
:100C78007408003A0319362E013A0319332E392E17
:100C880020001814080076302000D900DC00750810
:100C98002000DA007408D900F40A0319F50A840060
:100CA8005A0885000008DB00DD005D08031908000C
:100CB800D2264B2E20004F100C1A4F142000CF10B4
:100CC8008C1ACF1420004F118C184F152000CF110B
:100CD8000C18CF1520004F03FF3A0F3E08002000E4
:100CE800DA00D9000130D935FF3E031D772E59357A
:100CF800203E86008701403FF400413FF500080090
:100D080023008C018E013F3021008C008E018E164D
:100D1800951324000C148C148C150C168C160800D2
:100D280007302000EC00D1000230EC00D200EC00CB
:100D3800D60051305810D8105811D81558129D297E
:100D4800E72CE92CEC2CEF2CF22CF52CF82CFA2CB7
:100D5800FC2CFE2C200018107408960075089700CB
:100D680018140800F400740C2200031C0E10031859
:100D78000E140800200018107008960071089700DB
:100D880018140800640080010131890BC72E003453
:0E0D980022000E118E108E110E1008000800A1
:020000040001F9
:04000E008CFFFFDF85
:00000001FF
