:0400000080314228E1
:100008007E14803120007F08F200111C3D28210059
:10001800111C3D282830F000FC30F1008431D72431
:1000280080318431F32480318431ED24803185316D
:100038001125803185311725803185310B25803197
:100048008431F92480318531052580318431DF24DC
:10005800803185312F2580318531292580318531C1
:10006800232580318431FF24803185311D252000EE
:10007800111072082000FF007E100900803144280A
:10008800FA01203084000030850030308431E724C4
:100098008031A03084000030850036308431E72478
:1000A8000130F8001630F9000130EC000130ED00A5
:1000B8007E1020008C31CA2C2000DE011429292151
:1000C800803120005008DC00C600460803191429B6
:1000D800F301F401DC00DD01F5005D08F600F7012D
:1000E800BB2380312000BD01BD0A14290230082934
:1000F8002100D5282921803120005008DC0021006A
:10010800BC00BB30D8280330DE015E020318A428E7
:100118002921803120005008DC000930DD00F3007F
:100128005E08AB238031BB3E8600870120005C0857
:1001380081000130DC00DE0703305E02031C8C28DE
:100148000330DE015E020318BA280930DC00F30030
:100158005E08AB238031BB3E87218031013020000F
:10016800DC00DE0703305E02031CA928653008297D
:100178000530BF280630DC002100BB002921803172
:1001880020005008DC002100BC00DE280730DC001D
:100198002100BB002921803120005008DC0021000B
:1001A800BC00BB304314C3144315C3154316C31610
:1001B800872180316530072913294608013A031938
:1001C8007C28033A03191429013A03197E28073AAF
:1001D80003198728013A0319BC28033A0319BE28D2
:1001E800013A0319CA28E02814296430B001B10182
:1001F800082903303102E83003193002031C14299E
:10020800DC23803103302000DC00BD0014290430D9
:10021800D000D1014D2320000130BD010800BD01EF
:100228003D08003A03196328013A03197A28033A6A
:100238000319E128013A03190B29673A0319FD2824
:10024800013A0319F928132914292000D301D401EC
:10025800D201B001B1017D290130893118218031E5
:10026800003A03193D2922000E140130F70020003E
:100278007A290B3020003102B93003193002031CEF
:100288007D295408530403197D290130F700CF0054
:100298005408CE01CE075308CD01CD07CC01C83094
:1002A800CB009030C9000130CA004930C0228031EB
:1002B800003A0319592920005408D101D1075308DD
:1002C800D001D0070800003089311821803100386A
:1002D800031D7D292000B001B10122000E1001305C
:1002E8002000D3070030D43D0130F700D2077D2924
:1002F800D20120005208003A03193029013A0319A3
:1003080067297C297D292000DB00D901DA01D70182
:10031800D801023E8600870181015B08033E860002
:1003280081015B08043E860081015B08063E860069
:1003380081015B08053E86008101AD2A4508031945
:10034800A729C50108007A2380312000B001B10136
:10035800872A0130893118218031003A0319B929D7
:1003680022000E1402302000A32A0B302000310294
:10037800B930031930020318C42958080319AD2AE3
:100388000130D801D600CF005A08CE01CE0759084F
:10039800CD01CD07CC01C830CB009030C900013069
:1003A800CA005B08083E86008701011CE729590836
:1003B800D6005B08023E8600560881005B08083EAE
:1003C80086000110402A5B08083E86008701811CD0
:1003D800F9295908D6005B08033E860056088100B3
:1003E8005B08083E86008110402A5B08083E8600AC
:1003F8008701011D0B2A5908D6005B08043E8600B8
:10040800560881005B08083E86000111402A5B08F7
:10041800083E86008701811D1D2A5908D6005B0801
:10042800053E8600560881005B08083E860081115B
:10043800402A5B08083E86008701011E2F2A5908BA
:10044800D6005B08063E8600560881005B08083E19
:1004580086000112402A5B08083E86008701811E3B
:10046800402A5908D6005B08073E860056088100D6
:100478005B08083E860081125B082A238031200031
:100488000330D901DA01A32A0030893118218031DB
:1004980000380319512A2000AD2A2000B001B1010B
:1004A80022000E1001302000D9070030DA3D5B0829
:1004B800083E86008701011C632A1830812A5B08E0
:1004C800083E860087018118732A5B08083E86006B
:1004D8000119802A5B08083E8600811D752A0530AF
:1004E800812A5B08083E86008701011A802A5B087A
:1004F800083E8600811E872A093059065A04031DC2
:10050800872AD801D80AD701D70AAD2A0430493E2C
:1005180086008701160001040319992A4930C02270
:100528008031003A031D9F2A922A01302000D00012
:10053800D1014D23803120006430B001B101D600D3
:10054800D700AD2A03303102E8300319300203180E
:10055800D70120005708003A0319A229013A0319C4
:10056800AD29033A0319482A013A03198A2A673A36
:100578000319A62AAC2AAD2AF600063E8600870192
:100588000108013A031D1C2B7608043E8600403FF3
:10059800F400413FF500F435F50D74082000A6007D
:1005A8007508A7007608063E860081017608023E97
:1005B8008600403FA800413FA900F8011C2B76089F
:1005C80086008701403FF400413FF50020002B02E0
:1005D800031DF02A74082A02031C242B00308F31D3
:1005E800E62780312000A801A901F801152B76081B
:1005F800023E86008701403FF400413FF50020009D
:100608002902031D092B74082802031C242B01301E
:100618008F31E62780312000AA01AB010130F400B8
:10062800F8000130A6020030A73B242BF801242B48
:100638007808003A0319FB2A013A0319E32A1A2B0E
:10064800200027082604031901340034F300083E6B
:1006580086008701011808007308083E8600811883
:1006680008007308083E8600011908007308083E50
:100678008600811908007308083E8600011A0800E0
:100688007308083E8600811A08002000C501C50AC3
:1006980008002000D201D301D201D301510853022E
:1006A800031D582B50085202031808000130F700A8
:1006B800CF00CE010630CD00CC013230CB00C900CE
:1006C800CA014930C0228031003A0319652B200045
:1006D8000130B001B1013102F430031930020130A8
:1006E800031C6F2BD2070030D33D522B2000D501BD
:1006F8009A2B0130893118218031003A03199A2B3D
:10070800922B01308931182180310038031D9A2B32
:10071800922B0130D000D1014D23803101302000CF
:10072800D400D5079A2B0330D400D50020005508F3
:10073800033A031908005508003A03197D2B013ABA
:100748000319852B033A03198D2B972B9A2BF60047
:10075800F501761CB22B7308F400F5070310F30DAE
:100768000310F60CF608031DAD2B750808000030C1
:100778008B1B01302000D0008B13730823009100DD
:1007880075089300151395131515D423803120008F
:100798005008031D8B17230015119518CF2B08003F
:1007A80055309600AA309600951400000000080005
:1007B80020000930D601D701D401D501D200BB30C1
:1007C800D301D100C400D601D7015708803AD1001F
:1007D8005308803A5102031DF32B5208560203189E
:1007E800252C200056354407D10086008701403F5C
:1007F800D400413FD5005608013EF3000030573D74
:10080800F4005508F601F6075408F501F507F70155
:10081800BB23803120005608013EF3000030573DCD
:10082800F40027248031200055087406031D1E2C6F
:1008380054087306031DFF2B0130D6070030D73D3F
:10084800E92B000008007308230091001513951385
:1008580015140000000023001308F500F601F3004A
:100868007608F4000800672C01308F31B7278431EF
:10087800003A0319080022000E0C0139F400013077
:10088800F406F40D0E087406FD3974068E000E0C7D
:10089800F400740C0139F4000130F406F40DF40D81
:1008A8000E087406FB3974068E002000BE01BE0ACD
:1008B800080001308F31B72784310038031D080044
:1008C8002000BE01080020003E08003A0319382C19
:1008D800013A03195D2C702C0800F3002000181051
:1008E8007E2C200011107B2C21001110862C210059
:1008F8001114862C7308003A0319782C013A03194D
:10090800752C7B2C2000181408007308F500F50DD1
:10091800F50DF50D2100190875068739750699003A
:100928001908FC39023899000000000021001A1E3D
:100938009A2C1A1808009D2C200043100C1A4314F6
:100948002000C3108C1AC314200043118C184315BF
:100958002000C3110C18C31520004303FF3A0F3EB3
:1009680008008C31EB2C8C31EE2C8C31F22C8C3134
:10097800F62C8C31FA2C8C31FE2C8D31022D8D31D8
:10098800052D8D31082D23008C018E013F3021006B
:100998008C008E018E16951324000C148C148C1563
:1009A8000C168C16080020001810700896007108A4
:1009B80097001814080001302100A7070030A83D4F
:1009C800A93DAA3D0800640080010131890BE82C8B
:1009D800003401302000B8070030B93D080001306C
:1009E8002000B6070030B73D080001302000B407EA
:1009F8000030B53D080001302000B2070030B33D9B
:100A0800080001302000B0070030B13D0800013077
:100A18002000AE070030AF3D080001302000AA07D3
:100A28000030AB3D080001302000A8070030A93D88
:100A3800080001302000AC070030AD3D080001304F
:100A48002100B5070030B63D080001302100B3078A
:100A58000030B43D080001302100B1070030B23D3C
:020A6800080084
:10100800F7000130B7278831003A03191428200067
:101018006D08031914280130D200C107ED011D28FD
:101028000030B72788310038031D1D282000ED0146
:10103800ED0A7708063E8600870101082000D200E5
:10104800D301F3005308F400E830F5000330F6004C
:10105800AA248831740820003302031D3528730838
:101068003202031C4828B201B301770A86008701BF
:1010780001084102031C452822008E142000C101EA
:10108800080022008E100800770A860087010108F0
:1010980020004102031C080022008E1408002000D2
:1010A800E901EA01F301F401843127248831740845
:1010B8002000EA01EA077308E901E907FE28013080
:1010C80018218831003A0319712820000130B00135
:1010D800B101A4000030A50108001E302000A400C2
:1010E8000030A5010800003018218831003A0319A2
:1010F8008D28053020003102DD3003193002031C31
:10110800080022000E1402302000A4000030A501BF
:1011180008002000A401A50108000030182188312A
:101128000038031D080022000E1020000A30C601F6
:10113800A4000030A5010800803160208831003A01
:101148000319AC281E302000A4000030A5010800B7
:101158002000A401A5010800BB3035228831EB2806
:10116800BB3004208831EB28C4302000E700E100C0
:10117800CD30E800E200BB30B3218831EB28BB302A
:101188002B218831EB28BB302B218831EB28BB3051
:101198002B218831EB282000C601A401A501EB28EA
:1011A8004608013A0319B028033A0319EB28013A13
:1011B8000319B428073A0319B828013A0319C328B0
:1011C800033A0319C728013A0319CB28CF2820006E
:1011D800A401A50108000030182188310038031D3A
:1011E800080022008E102000A401A5010800A40117
:1011F800A50108002508003A03190329FB2824083B
:10120800003A03196328013A03197728033A0319A6
:101218009128083A0319A028143A0319D4287A3ACD
:101228000319EF28FB280800F30020008E1A003469
:10123800730803190134B401B501003035020A30CE
:1012480003193402031C21298E1E01340034F700CF
:101258000130B7278831003A03193B2920006C0870
:1012680003193B290130D200FA07EC01A429003008
:10127800B72788310038031DA4292000EC01EC0AA7
:10128800A429770A8600870101087A02031C08004E
:1012980022000E0C01392000D2000130D206D20DF6
:1012A80022000E0820005206FD39520622008E0048
:1012B800FA010800770A8600870101087A02031CF0
:1012C8006B2922008E142000AC01AD01FA01013017
:1012D80020002D02F43003192C02031C0800AC0175
:1012E800AD0122008E100800770A860087010108E8
:1012F8007A02031C852922008E142000AC01AD015E
:10130800FA017708063E8600870101082000D2000E
:10131800D301F3005308F400E830F5000330F60079
:10132800AA248831740820002D02031D9D29730802
:101338002C02031C0800AC01AD0122008E1008002D
:101348007708860087010108053A03194529033AF9
:1013580003195E29013A03197829B22908002000E7
:10136800E600E501E4238831200053082100AC01A0
:10137800AC07200052082100AB01AB072000610830
:10138800E4238831200053082100AE01AE07200075
:1013980052082100AD01AD0720006208E42388311E
:1013A800200053082100B001B00720005208210096
:1013B800AF01AF0720006608860087010108F70023
:1013C800E300610886000108F700E400620886006F
:1013D8000108F700E500292A0130B7278831003ACB
:1013E800031908002100B101B201B301B401B5012C
:1013F800B60120006308023A031D042A22008E1455
:1014080020006408023A031D0B2A22008E152000D2
:101418006508023A031D122A22000E162000C20196
:10142800C20A08000030B72788310038031D0800B9
:1014380022008E108E110E122000C2010800013009
:10144800F700C2070800C20108004208003A031961
:10145800F029013A0319162A033A0319232A272ADD
:101468000800F700EE27883176082000A3007508E9
:10147800A2007408A1007308A000922B0130B727BE
:101488008831003A0319080022008E142000C00198
:10149800C00A08000030B72788310038031D08004B
:1014A800F601F501F401F301AD230A302000D8005C
:1014B800C00008007708023E860087010108D800AE
:1014C800D901DA01DB015B08D3005A08D2005908B8
:1014D800D1005808D0000030D7003630D600EE30A2
:1014E800D5008030D400B723883120005308230268
:1014F800031D882A52082202031D882A5108210246
:10150800031D882A50082002031C0800F601F50173
:10151800F401F301AD230B302000D800C00008000F
:101528007708033E860087010108D800D901DA014F
:10153800DB015B08D3005A08D2005908D1005808CB
:10154800D0000030D7000930D6002730D500C03091
:10155800D400B7238831200053082302031DBE2A74
:1015680052082202031DBE2A51082102031DBE2A69
:1015780050082002031C0800F601F501F401F301EC
:10158800AD230C302000D800C00008007708043EC6
:10159800860087010108D800D901DA01DB015B0860
:1015A800D3005A08D2005908D1005808D00000309A
:1015B800D700D600EA30D5006030D400B723883190
:1015C800200053082302031DF32A52082202031D98
:1015D800F32A51082102031DF32A50082002031C94
:1015E8000800F601F501F401F301AD230D302000E8
:1015F800D800C00008007708053E8600870101086A
:10160800D800D901F3005908F4001030F50027304C
:10161800F600AA24883173082000DA007408DB0079
:101628000030DB1BFF30DC00DD002302031D262B0E
:101638005C082202031D262B5B082102031D262BB2
:101648005A082002031C0800F601F501F401F30111
:10165800AD230E302000D800C00008007708063EF1
:10166800860087010108D800D901F3005908F40061
:10167800E830F5000330F600AA248831730820000A
:10168800DA007408DB000030DB1BFF30DC00DD0013
:101698002302031D592B5C082202031D592B5B08EA
:1016A8002102031D592B5A082002031C0800F601C9
:1016B800F501F401F301AD230F302000D800C0007C
:1016C80008007708073E860087010108D800D9017D
:1016D800F3005908F4006430F500F601AA248831B3
:1016E80073082000DA007408DB000030DB1BFF30D1
:1016F800DC00DD002302031D8B2B5C082202031D86
:101708008B2B5B082102031D8B2B5A082002031C1C
:10171800080022008E102000C00108004008003A8E
:101728000319422A013A03194E2A0B3A03195E2A71
:10173800013A0319942A073A0319CA2A013A0319E4
:10174800FF2A033A0319322B013A0319652BAC2BF4
:10175800080076082100AA007508A9007408A800E6
:101768007308A70008000030F600F500F400F30045
:101778002000501CC72B5408F3075508F43D5608A1
:10178800F53D5708F63D0130D435D50DD60DD70DAA
:10179800890BC82B0130D336D20CD10CD00C890B55
:1017A800CF2B5308520451045004031DBC2B760858
:1017B800D3007508D2007408D1007308D00008005F
:1017C8002000E000DF01DE01DD01DC01023E8600D1
:1017D80087010108003A03190A2C6008023E8600B6
:1017E8000108D600D701F3005708F4001030F500BF
:1017F8000E30F600AA24883173082000DC00740833
:10180800DD00890D893B8909DE00DF006008033EA1
:10181800860087010108003A0319332C6008033E4B
:1018280086000108D600D701F3005708F4005830A5
:10183800F5000230F600AA24883173082000D80089
:101848007408D9000030D91BFF30DA00DB005808D3
:10185800DC075908DD3D5A08DE3D5B08DF3D6008BE
:10186800043E860087010108003A03195B2C6008D2
:10187800043E86000108D600D701F3005708F4009B
:101888003C30F500F601AA24883173082000D800FE
:101898007408D9000030D91BFF30DA00DB00580883
:1018A800DC075908DD3D5A08DE3D5B08DF3D60086E
:1018B800053E860087010108003A0319832C600859
:1018C800053E86000108D600D701F3005708F4004A
:1018D8000A30F500F601AA24883173082000D800E0
:1018E8007408D9000030D91BFF30DA00DB00580833
:1018F800DC075908DD3D5A08DE3D5B08DF3D60081E
:10190800063E860087010108003A03199A2C6008F0
:10191800063E86000108D600D701D801D901DC07A8
:101928005708DD3D5808DE3D5908DF3DE830DC0743
:101938000330DD3D0030DE3DDF3D5F08D5005E0849
:10194800D4005D08D3005C08D20008002000D00154
:10195800D101731CB42C75082000D0077608D13D3E
:101968000130F535F60D890BB52C0130F436F30C42
:10197800890BBA2C74087304031DAD2C2000510880
:10198800F401F4075008F301F30708000D30F300E1
:101998000030F4008431892488318B170B17843187
:1019A800C724883122000E118E108E110E10283097
:1019B800F300FC30F400F8270130843171248831B9
:1019C8008431A02488312000EB00C8000B2D53205F
:1019D80088310B2D0130412688310B2D02304126EC
:1019E80088310B2D0330412688310B2D04304126D8
:1019F80088310B2D0530412688310B2D182588316B
:101A08000B2D732588310B2D8431372488316400E0
:101A18002000480884000930040203180B2D843183
:101A28000435B53E82000B2D662D0130B72788316D
:101A3800003A0319232D22008E100E110800F3011D
:101A4800F401CB270130F5002000BC070800AF27C0
:101A58008831133074028930031973020030031C73
:101A6800462DB72788310038031D452D22008E14D6
:101A78000E15F301F401CB270130F5002000BC0757
:101A880008000030B7278831003A03190800200001
:101A9800BC010800AF2788310B307402B930031934
:101AA8007302031C5A2D2000BC0108000030B72720
:101AB80088310038031D0800F301F401CB2F200002
:101AC800BC01080020003C08003A0319192D013A0E
:101AD80003192B2D033A03194E2D632D08001F2ED1
:101AE8000130B7278831003A031908002000BF01E8
:101AF800BF0A08000030B72788310038031D0800E6
:101B080022008E140330F4002000BF0008000130CA
:101B1800D3278831003A03199F2D7908163A031DF7
:101B28009F2D22008E101430F400F9000430F400C8
:101B38002000BF0008000030D32788310038031D7B
:101B480008001630F400F9000230F4002000BF004D
:101B580008000130B7278831003A0319BA2D22004E
:101B68008E100430F4002000BF0008000330F40099
:101B78002000BF0008000030B72788310038031D57
:101B880008000A30F4002000BF0008000130B72721
:101B98008831003A031908000B30F4002000BF0018
:101BA80008000030B72788310038031D08002200DC
:101BB8008E150D30F4002000BF0008000130D32737
:101BC8008831003A0319F62D7908163A031DF62DC7
:101BD80022008E111530F400F9000E30F4002000B8
:101BE800BF0008000030D32788310038031D0800E3
:101BF8001630F400F9000C30F4002000BF00080093
:101C08000130B7278831003A0319112E22008E11AE
:101C18000E30F4002000BF0008000D30F400200052
:101C2800BF0008000030B72788310038031D0800BE
:101C38002000BF01080020003F08003A0319742D56
:101C4800013A03197E2D033A0319AD2D013A031900
:101C58008B2D073A0319BF2D0E3A0319CA2D013AE5
:101C68000319D52D073A0319042E013A0319E22D59
:101C7800033A0319162E402E0800F600992F01305A
:101C8800B7278831003A031908000030F301F4013E
:101C9800CB272000BB01BB0A08000030B7278831DA
:101CA8000038031DD42E0A30F5002000BB000800C0
:101CB800AF27883103307402E83003197302031C1C
:101CC800080022000E150130E6278831F301F401DF
:101CD800CB2720000230BA01F500BB000800AF276F
:101CE800883113307402893003197302031C080009
:101CF80022008E150A30F5002000BB000800AF272F
:101D0800883127307402113003197302031C08004C
:101D180022008E150A30F5002000BB000800AF270E
:101D2800883103307402E83003197302031C080079
:101D380022008E150E150A30F5002000BB000800A1
:101D4800AF2788310B307402B93003197302031CB2
:101D5800B42E22008E19B42E8E15F301F401CB2F68
:101D680022008E1D0800AF27883101307402F4303C
:101D780003197302031C080022008E110A30F500B3
:101D88002000BB00080022008E1DCD2E8E110E11E2
:101D9800CF2E8E150E150A30F5002000BB00080066
:101DA8007608003A0319AE2F013A03195C2E033A5C
:101DB8000319732E013A0319832E073A0319932E38
:101DC800013A0319A42E033A0319AE2F653A0319F1
:101DD800C72EAE2F08000030B72788310038031D02
:101DE800FA2E0A30F5002000BB000800AF27883122
:101DF80003307402E83003197302031C0800220040
:101E08008E15F301F401CB2788312000BA08031D91
:101E1800112F0330F500BB000800F301F401CB27B4
:101E28000430F5002000BB0008000030B7278831D7
:101E38000038031D242F0A30F5002000BB000800DD
:101E4800AF27883103307402E83003197302031C8A
:101E5800080022008E11F301F401CB272000023084
:101E6800BA01BA0AF500BB0008000030B72788316C
:101E78000038031D442F0A30F5002000BB0008007D
:101E8800AF27883103307402E83003197302031C4A
:101E980008000030E62722000E110A30F500200065
:101EA800BB0008000030B72788310038031D080040
:101EB8002000BB01080022008E110030B7278831AE
:101EC8000038031D6E2F22008E186E2F8E14F3011A
:101ED800F401CB2FAF27883101307402F430031995
:101EE8007302031C080022008E1C08008E102000BC
:101EF800BB0108000030B72788310038031D0800EF
:101F08000030E62722008E100E118E110E122000CE
:101F1800BB0108007608053A03195F2F663A0319D2
:101F2800562F7E2F0800BB01080020003B08003A0E
:101F38000319432E013A0319512E033A0319EF2EC0
:101F4800013A0319192F073A0319392F0E3A0319C1
:101F58008E2F972F080020002F08F401F4072E0871
:101F6800F301F3070800F30020000C19003473088C
:101F780003190134B601B7010030370232300319B2
:101F88003602031CC02F0C190034000001347408F9
:101F98002000AF01AF077308AE01AE070800F300D9
:101FA80020008C190034730803190134B801B901F1
:101FB80000303902323003193802031CDC2F8C1D23
:101FC80001340034F30073082200031D0E140319B2
:101FD8000E10080021002A08F6002908F500280834
:101FE800F4002708F3000800200018107308960072
:081FF80074089700181408009A
:020000040001F9
:04000E008CFFFFDE86
:00000001FF
